{
  "address": "0xa64f1929E787a07caa6f69f5d1E2Df60b1a272d0",
  "abi": [
    {
      "inputs": [],
      "stateMutability": "nonpayable",
      "type": "constructor"
    },
    {
      "anonymous": false,
      "inputs": [
        {
          "indexed": true,
          "internalType": "address",
          "name": "owner",
          "type": "address"
        },
        {
          "indexed": true,
          "internalType": "address",
          "name": "approved",
          "type": "address"
        },
        {
          "indexed": true,
          "internalType": "uint256",
          "name": "tokenId",
          "type": "uint256"
        }
      ],
      "name": "Approval",
      "type": "event"
    },
    {
      "anonymous": false,
      "inputs": [
        {
          "indexed": true,
          "internalType": "address",
          "name": "owner",
          "type": "address"
        },
        {
          "indexed": true,
          "internalType": "address",
          "name": "operator",
          "type": "address"
        },
        {
          "indexed": false,
          "internalType": "bool",
          "name": "approved",
          "type": "bool"
        }
      ],
      "name": "ApprovalForAll",
      "type": "event"
    },
    {
      "anonymous": false,
      "inputs": [
        {
          "indexed": true,
          "internalType": "address",
          "name": "from",
          "type": "address"
        },
        {
          "indexed": true,
          "internalType": "address",
          "name": "to",
          "type": "address"
        },
        {
          "indexed": true,
          "internalType": "uint256",
          "name": "tokenId",
          "type": "uint256"
        }
      ],
      "name": "Transfer",
      "type": "event"
    },
    {
      "inputs": [
        {
          "internalType": "address",
          "name": "to",
          "type": "address"
        },
        {
          "internalType": "uint256",
          "name": "tokenId",
          "type": "uint256"
        }
      ],
      "name": "approve",
      "outputs": [],
      "stateMutability": "nonpayable",
      "type": "function"
    },
    {
      "inputs": [
        {
          "internalType": "address",
          "name": "owner",
          "type": "address"
        }
      ],
      "name": "balanceOf",
      "outputs": [
        {
          "internalType": "uint256",
          "name": "",
          "type": "uint256"
        }
      ],
      "stateMutability": "view",
      "type": "function"
    },
    {
      "inputs": [
        {
          "internalType": "address",
          "name": "to",
          "type": "address"
        },
        {
          "internalType": "string",
          "name": "ipfs_hash",
          "type": "string"
        },
        {
          "internalType": "uint256",
          "name": "price",
          "type": "uint256"
        },
        {
          "internalType": "uint256",
          "name": "time",
          "type": "uint256"
        },
        {
          "internalType": "address",
          "name": "token",
          "type": "address"
        },
        {
          "internalType": "address",
          "name": "client",
          "type": "address"
        },
        {
          "internalType": "bool",
          "name": "is_public",
          "type": "bool"
        }
      ],
      "name": "generate",
      "outputs": [],
      "stateMutability": "nonpayable",
      "type": "function"
    },
    {
      "inputs": [
        {
          "internalType": "uint256",
          "name": "id",
          "type": "uint256"
        }
      ],
      "name": "getAgreementDetails",
      "outputs": [
        {
          "components": [
            {
              "internalType": "uint256",
              "name": "price",
              "type": "uint256"
            },
            {
              "internalType": "uint256",
              "name": "time",
              "type": "uint256"
            },
            {
              "internalType": "string",
              "name": "ipfs_hash",
              "type": "string"
            },
            {
              "internalType": "bool",
              "name": "is_public",
              "type": "bool"
            },
            {
              "internalType": "address",
              "name": "token",
              "type": "address"
            },
            {
              "internalType": "address",
              "name": "owner",
              "type": "address"
            },
            {
              "internalType": "address",
              "name": "client",
              "type": "address"
            }
          ],
          "internalType": "struct AgreementToken.AgreementDetails",
          "name": "",
          "type": "tuple"
        }
      ],
      "stateMutability": "view",
      "type": "function"
    },
    {
      "inputs": [
        {
          "internalType": "uint256",
          "name": "tokenId",
          "type": "uint256"
        }
      ],
      "name": "getApproved",
      "outputs": [
        {
          "internalType": "address",
          "name": "",
          "type": "address"
        }
      ],
      "stateMutability": "view",
      "type": "function"
    },
    {
      "inputs": [
        {
          "internalType": "address",
          "name": "owner",
          "type": "address"
        },
        {
          "internalType": "address",
          "name": "operator",
          "type": "address"
        }
      ],
      "name": "isApprovedForAll",
      "outputs": [
        {
          "internalType": "bool",
          "name": "",
          "type": "bool"
        }
      ],
      "stateMutability": "view",
      "type": "function"
    },
    {
      "inputs": [],
      "name": "name",
      "outputs": [
        {
          "internalType": "string",
          "name": "",
          "type": "string"
        }
      ],
      "stateMutability": "view",
      "type": "function"
    },
    {
      "inputs": [
        {
          "internalType": "uint256",
          "name": "tokenId",
          "type": "uint256"
        }
      ],
      "name": "ownerOf",
      "outputs": [
        {
          "internalType": "address",
          "name": "",
          "type": "address"
        }
      ],
      "stateMutability": "view",
      "type": "function"
    },
    {
      "inputs": [],
      "name": "placeOrder",
      "outputs": [],
      "stateMutability": "nonpayable",
      "type": "function"
    },
    {
      "inputs": [
        {
          "internalType": "address",
          "name": "from",
          "type": "address"
        },
        {
          "internalType": "address",
          "name": "to",
          "type": "address"
        },
        {
          "internalType": "uint256",
          "name": "tokenId",
          "type": "uint256"
        }
      ],
      "name": "safeTransferFrom",
      "outputs": [],
      "stateMutability": "nonpayable",
      "type": "function"
    },
    {
      "inputs": [
        {
          "internalType": "address",
          "name": "from",
          "type": "address"
        },
        {
          "internalType": "address",
          "name": "to",
          "type": "address"
        },
        {
          "internalType": "uint256",
          "name": "tokenId",
          "type": "uint256"
        },
        {
          "internalType": "bytes",
          "name": "_data",
          "type": "bytes"
        }
      ],
      "name": "safeTransferFrom",
      "outputs": [],
      "stateMutability": "nonpayable",
      "type": "function"
    },
    {
      "inputs": [
        {
          "internalType": "address",
          "name": "operator",
          "type": "address"
        },
        {
          "internalType": "bool",
          "name": "approved",
          "type": "bool"
        }
      ],
      "name": "setApprovalForAll",
      "outputs": [],
      "stateMutability": "nonpayable",
      "type": "function"
    },
    {
      "inputs": [
        {
          "internalType": "bytes4",
          "name": "interfaceId",
          "type": "bytes4"
        }
      ],
      "name": "supportsInterface",
      "outputs": [
        {
          "internalType": "bool",
          "name": "",
          "type": "bool"
        }
      ],
      "stateMutability": "view",
      "type": "function"
    },
    {
      "inputs": [],
      "name": "symbol",
      "outputs": [
        {
          "internalType": "string",
          "name": "",
          "type": "string"
        }
      ],
      "stateMutability": "view",
      "type": "function"
    },
    {
      "inputs": [
        {
          "internalType": "uint256",
          "name": "index",
          "type": "uint256"
        }
      ],
      "name": "tokenByIndex",
      "outputs": [
        {
          "internalType": "uint256",
          "name": "",
          "type": "uint256"
        }
      ],
      "stateMutability": "view",
      "type": "function"
    },
    {
      "inputs": [
        {
          "internalType": "address",
          "name": "owner",
          "type": "address"
        },
        {
          "internalType": "uint256",
          "name": "index",
          "type": "uint256"
        }
      ],
      "name": "tokenOfOwnerByIndex",
      "outputs": [
        {
          "internalType": "uint256",
          "name": "",
          "type": "uint256"
        }
      ],
      "stateMutability": "view",
      "type": "function"
    },
    {
      "inputs": [
        {
          "internalType": "uint256",
          "name": "tokenId",
          "type": "uint256"
        }
      ],
      "name": "tokenURI",
      "outputs": [
        {
          "internalType": "string",
          "name": "",
          "type": "string"
        }
      ],
      "stateMutability": "view",
      "type": "function"
    },
    {
      "inputs": [],
      "name": "totalSupply",
      "outputs": [
        {
          "internalType": "uint256",
          "name": "",
          "type": "uint256"
        }
      ],
      "stateMutability": "view",
      "type": "function"
    },
    {
      "inputs": [
        {
          "internalType": "address",
          "name": "from",
          "type": "address"
        },
        {
          "internalType": "address",
          "name": "to",
          "type": "address"
        },
        {
          "internalType": "uint256",
          "name": "tokenId",
          "type": "uint256"
        }
      ],
      "name": "transferFrom",
      "outputs": [],
      "stateMutability": "nonpayable",
      "type": "function"
    },
    {
      "inputs": [
        {
          "internalType": "string",
          "name": "ipfs_hash",
          "type": "string"
        },
        {
          "internalType": "uint256",
          "name": "price",
          "type": "uint256"
        },
        {
          "internalType": "uint256",
          "name": "time",
          "type": "uint256"
        },
        {
          "internalType": "uint256",
          "name": "id",
          "type": "uint256"
        },
        {
          "internalType": "address",
          "name": "token",
          "type": "address"
        }
      ],
      "name": "updateAgreement",
      "outputs": [],
      "stateMutability": "nonpayable",
      "type": "function"
    }
  ],
  "transactionHash": "0x603926933b30a5955b7f564bcc6fb0cd5a01fe8b3df875ecbc3a06be3fec0759",
  "args": [],
  "solcInputHash": "4daccb405c452b3f437fb680761265a6",
  "bytecode": "0x60806040523480156200001157600080fd5b50604080518082018252600e81526d20b3b932b2b6b2b73a2a37b5b2b760911b6020808301918252835180850190945260038452621051d560ea1b908401528151919291620000639160009162000082565b5080516200007990600190602084019062000082565b50505062000165565b828054620000909062000128565b90600052602060002090601f016020900481019282620000b45760008555620000ff565b82601f10620000cf57805160ff1916838001178555620000ff565b82800160010185558215620000ff579182015b82811115620000ff578251825591602001919060010190620000e2565b506200010d92915062000111565b5090565b5b808211156200010d576000815560010162000112565b6002810460018216806200013d57607f821691505b602082108114156200015f57634e487b7160e01b600052602260045260246000fd5b50919050565b61202680620001756000396000f3fe608060405234801561001057600080fd5b506004361061012c5760003560e01c806370a08231116100ad578063b88d4fde11610071578063b88d4fde14610279578063c87b56dd1461028c578063d52e24d11461029f578063e985e9c5146102b2578063f5c609e0146102c55761012c565b806370a082311461021857806395d89b411461022b578063a22cb46514610233578063ae019cc814610246578063b36f7753146102595761012c565b806323b872dd116100f457806323b872dd146101b95780632f745c59146101cc57806342842e0e146101df5780634f6ccce7146101f25780636352211e146102055761012c565b806301ffc9a71461013157806306fdde031461015a578063081812fc1461016f578063095ea7b31461018f57806318160ddd146101a4575b600080fd5b61014461013f366004611846565b6102cd565b60405161015191906119ab565b60405180910390f35b6101626102fa565b60405161015191906119b6565b61018261017d3660046118e7565b61038c565b604051610151919061195a565b6101a261019d36600461181d565b6103d8565b005b6101ac610470565b6040516101519190611eb9565b6101a26101c73660046116af565b610476565b6101ac6101da36600461181d565b6104ae565b6101a26101ed3660046116af565b610500565b6101ac6102003660046118e7565b61051b565b6101826102133660046118e7565b610576565b6101ac610226366004611663565b6105ab565b6101626105ef565b6101a2610241366004611763565b6105fe565b6101a261025436600461187e565b6106cc565b61026c6102673660046118e7565b6108d0565b6040516101519190611e42565b6101a26102873660046116ea565b610a2a565b61016261029a3660046118e7565b610a69565b6101a26102ad36600461178c565b610aec565b6101446102c036600461167d565b610beb565b6101a2610c19565b60006001600160e01b0319821663780e9d6360e01b14806102f257506102f282610c1b565b90505b919050565b60606000805461030990611f31565b80601f016020809104026020016040519081016040528092919081815260200182805461033590611f31565b80156103825780601f1061035757610100808354040283529160200191610382565b820191906000526020600020905b81548152906001019060200180831161036557829003601f168201915b5050505050905090565b600061039782610c5b565b6103bc5760405162461bcd60e51b81526004016103b390611c80565b60405180910390fd5b506000908152600460205260409020546001600160a01b031690565b60006103e382610576565b9050806001600160a01b0316836001600160a01b031614156104175760405162461bcd60e51b81526004016103b390611d64565b806001600160a01b0316610429610c78565b6001600160a01b031614806104455750610445816102c0610c78565b6104615760405162461bcd60e51b81526004016103b390611b60565b61046b8383610c7c565b505050565b60085490565b610487610481610c78565b82610cea565b6104a35760405162461bcd60e51b81526004016103b390611da5565b61046b838383610d6f565b60006104b9836105ab565b82106104d75760405162461bcd60e51b81526004016103b3906119c9565b506001600160a01b03919091166000908152600660209081526040808320938352929052205490565b61046b83838360405180602001604052806000815250610a2a565b6000610525610470565b82106105435760405162461bcd60e51b81526004016103b390611df6565b6008828154811061056457634e487b7160e01b600052603260045260246000fd5b90600052602060002001549050919050565b6000818152600260205260408120546001600160a01b0316806102f25760405162461bcd60e51b81526004016103b390611c02565b60006001600160a01b0382166105d35760405162461bcd60e51b81526004016103b390611bb8565b506001600160a01b031660009081526003602052604090205490565b60606001805461030990611f31565b610606610c78565b6001600160a01b0316826001600160a01b031614156106375760405162461bcd60e51b81526004016103b390611ae1565b8060056000610644610c78565b6001600160a01b03908116825260208083019390935260409182016000908120918716808252919093529120805460ff191692151592909217909155610688610c78565b6001600160a01b03167f17307eab39ab6107e8899845ad3d59bd9653f200f220920489ca2b5937696c31836040516106c091906119ab565b60405180910390a35050565b6000600b60008481526020019081526020016000206040518060e0016040529081600082015481526020016001820154815260200160028201805461071090611f31565b80601f016020809104026020016040519081016040528092919081815260200182805461073c90611f31565b80156107895780601f1061075e57610100808354040283529160200191610789565b820191906000526020600020905b81548152906001019060200180831161076c57829003601f168201915b5050509183525050600382015460ff811615156020808401919091526001600160a01b036101009092048216604080850191909152600485015483166060808601919091526005909501548316608094850152805160e0810182528b81528083018b81528183018e8152888801511515978301979097528985169582019590955260a08088015185169082015260c080880151909416938101939093526000898152600b83522082518155925160018401559251805194955090939192610858926002850192909101906114ba565b506060820151600382018054608085015160ff1990911692151592909217610100600160a81b0319166101006001600160a01b039384160217905560a08301516004830180546001600160a01b031990811692841692909217905560c090930151600590920180549093169116179055505050505050565b6108d861153e565b6000600b60008481526020019081526020016000206040518060e0016040529081600082015481526020016001820154815260200160028201805461091c90611f31565b80601f016020809104026020016040519081016040528092919081815260200182805461094890611f31565b80156109955780601f1061096a57610100808354040283529160200191610995565b820191906000526020600020905b81548152906001019060200180831161097857829003601f168201915b5050509183525050600382015460ff8116151560208301526001600160a01b03610100909104811660408301526004830154811660608084019190915260059093015416608090910152810151909150156109f15790506102f5565b60c08101516001600160a01b0316331480610a18575060a08101516001600160a01b031633145b15610a245790506102f5565b50919050565b610a3b610a35610c78565b83610cea565b610a575760405162461bcd60e51b81526004016103b390611da5565b610a6384848484610e9c565b50505050565b6060610a7482610c5b565b610a905760405162461bcd60e51b81526004016103b390611d15565b6000610a9a610ecf565b90506000815111610aba5760405180602001604052806000815250610ae5565b80610ac484610ee1565b604051602001610ad592919061192b565b6040516020818303038152906040525b9392505050565b6000610af6610ffc565b6040805160e08101825288815260208082018981528284018c815287151560608501526001600160a01b03808b1660808601523360a0860152891660c08501526000868152600b8452949094208351815590516001820155925180519495509193610b6792600285019201906114ba565b506060820151600382018054608085015160ff1990911692151592909217610100600160a81b0319166101006001600160a01b039384160217905560a08301516004830180546001600160a01b031990811692841692909217905560c090930151600590920180549093169116179055610be1888261101a565b5050505050505050565b6001600160a01b03918216600090815260056020908152604080832093909416825291909152205460ff1690565b565b60006001600160e01b031982166380ac58cd60e01b1480610c4c57506001600160e01b03198216635b5e139f60e01b145b806102f257506102f2826110f9565b6000908152600260205260409020546001600160a01b0316151590565b3390565b600081815260046020526040902080546001600160a01b0319166001600160a01b0384169081179091558190610cb182610576565b6001600160a01b03167f8c5be1e5ebec7d5bd14f71427d1e84f3dd0314c0f7b2291e5b200ac8c7c3b92560405160405180910390a45050565b6000610cf582610c5b565b610d115760405162461bcd60e51b81526004016103b390611b14565b6000610d1c83610576565b9050806001600160a01b0316846001600160a01b03161480610d575750836001600160a01b0316610d4c8461038c565b6001600160a01b0316145b80610d675750610d678185610beb565b949350505050565b826001600160a01b0316610d8282610576565b6001600160a01b031614610da85760405162461bcd60e51b81526004016103b390611ccc565b6001600160a01b038216610dce5760405162461bcd60e51b81526004016103b390611a9d565b610dd9838383611112565b610de4600082610c7c565b6001600160a01b0383166000908152600360205260408120805460019290610e0d908490611eee565b90915550506001600160a01b0382166000908152600360205260408120805460019290610e3b908490611ec2565b909155505060008181526002602052604080822080546001600160a01b0319166001600160a01b0386811691821790925591518493918716917fddf252ad1be2c89b69c2b068fc378daa952ba7f163c4a11628f55a4df523b3ef91a4505050565b610ea7848484610d6f565b610eb38484848461119b565b610a635760405162461bcd60e51b81526004016103b390611a14565b60408051602081019091526000815290565b606081610f0657506040805180820190915260018152600360fc1b60208201526102f5565b8160005b8115610f305780610f1a81611f66565b9150610f299050600a83611eda565b9150610f0a565b60008167ffffffffffffffff811115610f5957634e487b7160e01b600052604160045260246000fd5b6040519080825280601f01601f191660200182016040528015610f83576020820181803683370190505b5090505b8415610d6757610f98600183611eee565b9150610fa5600a86611f81565b610fb0906030611ec2565b60f81b818381518110610fd357634e487b7160e01b600052603260045260246000fd5b60200101906001600160f81b031916908160001a905350610ff5600a86611eda565b9450610f87565b600a80546000918261100d83611f66565b9091555050600a54905090565b6001600160a01b0382166110405760405162461bcd60e51b81526004016103b390611c4b565b61104981610c5b565b156110665760405162461bcd60e51b81526004016103b390611a66565b61107260008383611112565b6001600160a01b038216600090815260036020526040812080546001929061109b908490611ec2565b909155505060008181526002602052604080822080546001600160a01b0319166001600160a01b03861690811790915590518392907fddf252ad1be2c89b69c2b068fc378daa952ba7f163c4a11628f55a4df523b3ef908290a45050565b6001600160e01b031981166301ffc9a760e01b14919050565b61111d83838361046b565b6001600160a01b03831661113957611134816112b6565b61115c565b816001600160a01b0316836001600160a01b03161461115c5761115c83826112fa565b6001600160a01b0382166111785761117381611397565b61046b565b826001600160a01b0316826001600160a01b03161461046b5761046b8282611470565b60006111af846001600160a01b03166114b4565b156112ab57836001600160a01b031663150b7a026111cb610c78565b8786866040518563ffffffff1660e01b81526004016111ed949392919061196e565b602060405180830381600087803b15801561120757600080fd5b505af1925050508015611237575060408051601f3d908101601f1916820190925261123491810190611862565b60015b611291573d808015611265576040519150601f19603f3d011682016040523d82523d6000602084013e61126a565b606091505b5080516112895760405162461bcd60e51b81526004016103b390611a14565b805181602001fd5b6001600160e01b031916630a85bd0160e11b149050610d67565b506001949350505050565b600880546000838152600960205260408120829055600182018355919091527ff3f7a9fe364faab93b216da50a3214154f22a0a2b415b23a84c8169e8b636ee30155565b60006001611307846105ab565b6113119190611eee565b600083815260076020526040902054909150808214611364576001600160a01b03841660009081526006602090815260408083208584528252808320548484528184208190558352600790915290208190555b5060009182526007602090815260408084208490556001600160a01b039094168352600681528383209183525290812055565b6008546000906113a990600190611eee565b600083815260096020526040812054600880549394509092849081106113df57634e487b7160e01b600052603260045260246000fd5b90600052602060002001549050806008838154811061140e57634e487b7160e01b600052603260045260246000fd5b600091825260208083209091019290925582815260099091526040808220849055858252812055600880548061145457634e487b7160e01b600052603160045260246000fd5b6001900381819060005260206000200160009055905550505050565b600061147b836105ab565b6001600160a01b039093166000908152600660209081526040808320868452825280832085905593825260079052919091209190915550565b3b151590565b8280546114c690611f31565b90600052602060002090601f0160209004810192826114e8576000855561152e565b82601f1061150157805160ff191683800117855561152e565b8280016001018555821561152e579182015b8281111561152e578251825591602001919060010190611513565b5061153a929150611598565b5090565b6040518060e0016040528060008152602001600081526020016060815260200160001515815260200160006001600160a01b0316815260200160006001600160a01b0316815260200160006001600160a01b031681525090565b5b8082111561153a5760008155600101611599565b600067ffffffffffffffff808411156115c8576115c8611fc1565b604051601f8501601f1916810160200182811182821017156115ec576115ec611fc1565b60405284815291508183850186101561160457600080fd5b8484602083013760006020868301015250509392505050565b80356001600160a01b03811681146102f557600080fd5b803580151581146102f557600080fd5b600082601f830112611654578081fd5b610ae5838335602085016115ad565b600060208284031215611674578081fd5b610ae58261161d565b6000806040838503121561168f578081fd5b6116988361161d565b91506116a66020840161161d565b90509250929050565b6000806000606084860312156116c3578081fd5b6116cc8461161d565b92506116da6020850161161d565b9150604084013590509250925092565b600080600080608085870312156116ff578081fd5b6117088561161d565b93506117166020860161161d565b925060408501359150606085013567ffffffffffffffff811115611738578182fd5b8501601f81018713611748578182fd5b611757878235602084016115ad565b91505092959194509250565b60008060408385031215611775578182fd5b61177e8361161d565b91506116a660208401611634565b600080600080600080600060e0888a0312156117a6578283fd5b6117af8861161d565b9650602088013567ffffffffffffffff8111156117ca578384fd5b6117d68a828b01611644565b96505060408801359450606088013593506117f36080890161161d565b925061180160a0890161161d565b915061180f60c08901611634565b905092959891949750929550565b6000806040838503121561182f578182fd5b6118388361161d565b946020939093013593505050565b600060208284031215611857578081fd5b8135610ae581611fd7565b600060208284031215611873578081fd5b8151610ae581611fd7565b600080600080600060a08688031215611895578081fd5b853567ffffffffffffffff8111156118ab578182fd5b6118b788828901611644565b9550506020860135935060408601359250606086013591506118db6080870161161d565b90509295509295909350565b6000602082840312156118f8578081fd5b5035919050565b60008151808452611917816020860160208601611f05565b601f01601f19169290920160200192915050565b6000835161193d818460208801611f05565b835190830190611951818360208801611f05565b01949350505050565b6001600160a01b0391909116815260200190565b6001600160a01b03858116825284166020820152604081018390526080606082018190526000906119a1908301846118ff565b9695505050505050565b901515815260200190565b600060208252610ae560208301846118ff565b6020808252602b908201527f455243373231456e756d657261626c653a206f776e657220696e646578206f7560408201526a74206f6620626f756e647360a81b606082015260800190565b60208082526032908201527f4552433732313a207472616e7366657220746f206e6f6e20455243373231526560408201527131b2b4bb32b91034b6b83632b6b2b73a32b960711b606082015260800190565b6020808252601c908201527f4552433732313a20746f6b656e20616c7265616479206d696e74656400000000604082015260600190565b60208082526024908201527f4552433732313a207472616e7366657220746f20746865207a65726f206164646040820152637265737360e01b606082015260800190565b60208082526019908201527822a9219b99189d1030b8383937bb32903a379031b0b63632b960391b604082015260600190565b6020808252602c908201527f4552433732313a206f70657261746f7220717565727920666f72206e6f6e657860408201526b34b9ba32b73a103a37b5b2b760a11b606082015260800190565b60208082526038908201527f4552433732313a20617070726f76652063616c6c6572206973206e6f74206f776040820152771b995c881b9bdc88185c1c1c9bdd995908199bdc88185b1b60421b606082015260800190565b6020808252602a908201527f4552433732313a2062616c616e636520717565727920666f7220746865207a65604082015269726f206164647265737360b01b606082015260800190565b60208082526029908201527f4552433732313a206f776e657220717565727920666f72206e6f6e657869737460408201526832b73a103a37b5b2b760b91b606082015260800190565b6020808252818101527f4552433732313a206d696e7420746f20746865207a65726f2061646472657373604082015260600190565b6020808252602c908201527f4552433732313a20617070726f76656420717565727920666f72206e6f6e657860408201526b34b9ba32b73a103a37b5b2b760a11b606082015260800190565b60208082526029908201527f4552433732313a207472616e73666572206f6620746f6b656e2074686174206960408201526839903737ba1037bbb760b91b606082015260800190565b6020808252602f908201527f4552433732314d657461646174613a2055524920717565727920666f72206e6f60408201526e3732bc34b9ba32b73a103a37b5b2b760891b606082015260800190565b60208082526021908201527f4552433732313a20617070726f76616c20746f2063757272656e74206f776e656040820152603960f91b606082015260800190565b60208082526031908201527f4552433732313a207472616e736665722063616c6c6572206973206e6f74206f6040820152701ddb995c881b9bdc88185c1c1c9bdd9959607a1b606082015260800190565b6020808252602c908201527f455243373231456e756d657261626c653a20676c6f62616c20696e646578206f60408201526b7574206f6620626f756e647360a01b606082015260800190565b6000602082528251602083015260208301516040830152604083015160e06060840152611e736101008401826118ff565b9050606084015115156080840152608084015160018060a01b0380821660a08601528060a08701511660c08601528060c08701511660e086015250508091505092915050565b90815260200190565b60008219821115611ed557611ed5611f95565b500190565b600082611ee957611ee9611fab565b500490565b600082821015611f0057611f00611f95565b500390565b60005b83811015611f20578181015183820152602001611f08565b83811115610a635750506000910152565b600281046001821680611f4557607f821691505b60208210811415610a2457634e487b7160e01b600052602260045260246000fd5b6000600019821415611f7a57611f7a611f95565b5060010190565b600082611f9057611f90611fab565b500690565b634e487b7160e01b600052601160045260246000fd5b634e487b7160e01b600052601260045260246000fd5b634e487b7160e01b600052604160045260246000fd5b6001600160e01b031981168114611fed57600080fd5b5056fea264697066735822122099ef344c25b0d988014b1eb71d5fed9b2302e8f8263bfe0923bcc12c7dccc73264736f6c63430008000033",
  "devdoc": {
    "kind": "dev",
    "methods": {
      "approve(address,uint256)": {
        "details": "See {IERC721-approve}."
      },
      "balanceOf(address)": {
        "details": "See {IERC721-balanceOf}."
      },
      "getApproved(uint256)": {
        "details": "See {IERC721-getApproved}."
      },
      "isApprovedForAll(address,address)": {
        "details": "See {IERC721-isApprovedForAll}."
      },
      "name()": {
        "details": "See {IERC721Metadata-name}."
      },
      "ownerOf(uint256)": {
        "details": "See {IERC721-ownerOf}."
      },
      "safeTransferFrom(address,address,uint256)": {
        "details": "See {IERC721-safeTransferFrom}."
      },
      "safeTransferFrom(address,address,uint256,bytes)": {
        "details": "See {IERC721-safeTransferFrom}."
      },
      "setApprovalForAll(address,bool)": {
        "details": "See {IERC721-setApprovalForAll}."
      },
      "supportsInterface(bytes4)": {
        "details": "See {IERC165-supportsInterface}."
      },
      "symbol()": {
        "details": "See {IERC721Metadata-symbol}."
      },
      "tokenByIndex(uint256)": {
        "details": "See {IERC721Enumerable-tokenByIndex}."
      },
      "tokenOfOwnerByIndex(address,uint256)": {
        "details": "See {IERC721Enumerable-tokenOfOwnerByIndex}."
      },
      "tokenURI(uint256)": {
        "details": "See {IERC721Metadata-tokenURI}."
      },
      "totalSupply()": {
        "details": "See {IERC721Enumerable-totalSupply}."
      },
      "transferFrom(address,address,uint256)": {
        "details": "See {IERC721-transferFrom}."
      }
    },
    "version": 1
  },
  "userdoc": {
    "kind": "user",
    "methods": {},
    "version": 1
  },
  "storageLayout": {
    "storage": [
      {
        "astId": 25,
        "contract": "contracts/Factory.sol:AgreementToken",
        "label": "_name",
        "offset": 0,
        "slot": "0",
        "type": "t_string_storage"
      },
      {
        "astId": 27,
        "contract": "contracts/Factory.sol:AgreementToken",
        "label": "_symbol",
        "offset": 0,
        "slot": "1",
        "type": "t_string_storage"
      },
      {
        "astId": 31,
        "contract": "contracts/Factory.sol:AgreementToken",
        "label": "_owners",
        "offset": 0,
        "slot": "2",
        "type": "t_mapping(t_uint256,t_address)"
      },
      {
        "astId": 35,
        "contract": "contracts/Factory.sol:AgreementToken",
        "label": "_balances",
        "offset": 0,
        "slot": "3",
        "type": "t_mapping(t_address,t_uint256)"
      },
      {
        "astId": 39,
        "contract": "contracts/Factory.sol:AgreementToken",
        "label": "_tokenApprovals",
        "offset": 0,
        "slot": "4",
        "type": "t_mapping(t_uint256,t_address)"
      },
      {
        "astId": 45,
        "contract": "contracts/Factory.sol:AgreementToken",
        "label": "_operatorApprovals",
        "offset": 0,
        "slot": "5",
        "type": "t_mapping(t_address,t_mapping(t_address,t_bool))"
      },
      {
        "astId": 964,
        "contract": "contracts/Factory.sol:AgreementToken",
        "label": "_ownedTokens",
        "offset": 0,
        "slot": "6",
        "type": "t_mapping(t_address,t_mapping(t_uint256,t_uint256))"
      },
      {
        "astId": 968,
        "contract": "contracts/Factory.sol:AgreementToken",
        "label": "_ownedTokensIndex",
        "offset": 0,
        "slot": "7",
        "type": "t_mapping(t_uint256,t_uint256)"
      },
      {
        "astId": 971,
        "contract": "contracts/Factory.sol:AgreementToken",
        "label": "_allTokens",
        "offset": 0,
        "slot": "8",
        "type": "t_array(t_uint256)dyn_storage"
      },
      {
        "astId": 975,
        "contract": "contracts/Factory.sol:AgreementToken",
        "label": "_allTokensIndex",
        "offset": 0,
        "slot": "9",
        "type": "t_mapping(t_uint256,t_uint256)"
      },
      {
        "astId": 1925,
        "contract": "contracts/Factory.sol:AgreementToken",
        "label": "tokenId",
        "offset": 0,
        "slot": "10",
        "type": "t_uint256"
      },
      {
        "astId": 1930,
        "contract": "contracts/Factory.sol:AgreementToken",
        "label": "agreementDetail",
        "offset": 0,
        "slot": "11",
        "type": "t_mapping(t_uint256,t_struct(AgreementDetails)1923_storage)"
      }
    ],
    "types": {
      "t_address": {
        "encoding": "inplace",
        "label": "address",
        "numberOfBytes": "20"
      },
      "t_array(t_uint256)dyn_storage": {
        "base": "t_uint256",
        "encoding": "dynamic_array",
        "label": "uint256[]",
        "numberOfBytes": "32"
      },
      "t_bool": {
        "encoding": "inplace",
        "label": "bool",
        "numberOfBytes": "1"
      },
      "t_mapping(t_address,t_bool)": {
        "encoding": "mapping",
        "key": "t_address",
        "label": "mapping(address => bool)",
        "numberOfBytes": "32",
        "value": "t_bool"
      },
      "t_mapping(t_address,t_mapping(t_address,t_bool))": {
        "encoding": "mapping",
        "key": "t_address",
        "label": "mapping(address => mapping(address => bool))",
        "numberOfBytes": "32",
        "value": "t_mapping(t_address,t_bool)"
      },
      "t_mapping(t_address,t_mapping(t_uint256,t_uint256))": {
        "encoding": "mapping",
        "key": "t_address",
        "label": "mapping(address => mapping(uint256 => uint256))",
        "numberOfBytes": "32",
        "value": "t_mapping(t_uint256,t_uint256)"
      },
      "t_mapping(t_address,t_uint256)": {
        "encoding": "mapping",
        "key": "t_address",
        "label": "mapping(address => uint256)",
        "numberOfBytes": "32",
        "value": "t_uint256"
      },
      "t_mapping(t_uint256,t_address)": {
        "encoding": "mapping",
        "key": "t_uint256",
        "label": "mapping(uint256 => address)",
        "numberOfBytes": "32",
        "value": "t_address"
      },
      "t_mapping(t_uint256,t_struct(AgreementDetails)1923_storage)": {
        "encoding": "mapping",
        "key": "t_uint256",
        "label": "mapping(uint256 => struct AgreementToken.AgreementDetails)",
        "numberOfBytes": "32",
        "value": "t_struct(AgreementDetails)1923_storage"
      },
      "t_mapping(t_uint256,t_uint256)": {
        "encoding": "mapping",
        "key": "t_uint256",
        "label": "mapping(uint256 => uint256)",
        "numberOfBytes": "32",
        "value": "t_uint256"
      },
      "t_string_storage": {
        "encoding": "bytes",
        "label": "string",
        "numberOfBytes": "32"
      },
      "t_struct(AgreementDetails)1923_storage": {
        "encoding": "inplace",
        "label": "struct AgreementToken.AgreementDetails",
        "members": [
          {
            "astId": 1910,
            "contract": "contracts/Factory.sol:AgreementToken",
            "label": "price",
            "offset": 0,
            "slot": "0",
            "type": "t_uint256"
          },
          {
            "astId": 1912,
            "contract": "contracts/Factory.sol:AgreementToken",
            "label": "time",
            "offset": 0,
            "slot": "1",
            "type": "t_uint256"
          },
          {
            "astId": 1914,
            "contract": "contracts/Factory.sol:AgreementToken",
            "label": "ipfs_hash",
            "offset": 0,
            "slot": "2",
            "type": "t_string_storage"
          },
          {
            "astId": 1916,
            "contract": "contracts/Factory.sol:AgreementToken",
            "label": "is_public",
            "offset": 0,
            "slot": "3",
            "type": "t_bool"
          },
          {
            "astId": 1918,
            "contract": "contracts/Factory.sol:AgreementToken",
            "label": "token",
            "offset": 1,
            "slot": "3",
            "type": "t_address"
          },
          {
            "astId": 1920,
            "contract": "contracts/Factory.sol:AgreementToken",
            "label": "owner",
            "offset": 0,
            "slot": "4",
            "type": "t_address"
          },
          {
            "astId": 1922,
            "contract": "contracts/Factory.sol:AgreementToken",
            "label": "client",
            "offset": 0,
            "slot": "5",
            "type": "t_address"
          }
        ],
        "numberOfBytes": "192"
      },
      "t_uint256": {
        "encoding": "inplace",
        "label": "uint256",
        "numberOfBytes": "32"
      }
    }
  }
}