{
  "address": "0x9Bb917407fC1A83D8C8B80eC2FD18718b3D35337",
  "abi": [
    {
      "inputs": [],
      "stateMutability": "nonpayable",
      "type": "constructor"
    },
    {
      "anonymous": false,
      "inputs": [
        {
          "indexed": true,
          "internalType": "address",
          "name": "owner",
          "type": "address"
        },
        {
          "indexed": true,
          "internalType": "address",
          "name": "approved",
          "type": "address"
        },
        {
          "indexed": true,
          "internalType": "uint256",
          "name": "tokenId",
          "type": "uint256"
        }
      ],
      "name": "Approval",
      "type": "event"
    },
    {
      "anonymous": false,
      "inputs": [
        {
          "indexed": true,
          "internalType": "address",
          "name": "owner",
          "type": "address"
        },
        {
          "indexed": true,
          "internalType": "address",
          "name": "operator",
          "type": "address"
        },
        {
          "indexed": false,
          "internalType": "bool",
          "name": "approved",
          "type": "bool"
        }
      ],
      "name": "ApprovalForAll",
      "type": "event"
    },
    {
      "anonymous": false,
      "inputs": [
        {
          "indexed": true,
          "internalType": "address",
          "name": "from",
          "type": "address"
        },
        {
          "indexed": true,
          "internalType": "address",
          "name": "to",
          "type": "address"
        },
        {
          "indexed": true,
          "internalType": "uint256",
          "name": "tokenId",
          "type": "uint256"
        }
      ],
      "name": "Transfer",
      "type": "event"
    },
    {
      "inputs": [
        {
          "internalType": "address",
          "name": "to",
          "type": "address"
        },
        {
          "internalType": "uint256",
          "name": "tokenId",
          "type": "uint256"
        }
      ],
      "name": "approve",
      "outputs": [],
      "stateMutability": "nonpayable",
      "type": "function"
    },
    {
      "inputs": [
        {
          "internalType": "address",
          "name": "owner",
          "type": "address"
        }
      ],
      "name": "balanceOf",
      "outputs": [
        {
          "internalType": "uint256",
          "name": "",
          "type": "uint256"
        }
      ],
      "stateMutability": "view",
      "type": "function"
    },
    {
      "inputs": [
        {
          "internalType": "address",
          "name": "to",
          "type": "address"
        },
        {
          "internalType": "string",
          "name": "ipfs_hash",
          "type": "string"
        },
        {
          "internalType": "uint256",
          "name": "price",
          "type": "uint256"
        },
        {
          "internalType": "uint256",
          "name": "time",
          "type": "uint256"
        },
        {
          "internalType": "address",
          "name": "token",
          "type": "address"
        },
        {
          "internalType": "address",
          "name": "client",
          "type": "address"
        },
        {
          "internalType": "bool",
          "name": "is_public",
          "type": "bool"
        }
      ],
      "name": "generate",
      "outputs": [],
      "stateMutability": "nonpayable",
      "type": "function"
    },
    {
      "inputs": [
        {
          "internalType": "uint256",
          "name": "id",
          "type": "uint256"
        }
      ],
      "name": "getAgreementDetails",
      "outputs": [
        {
          "components": [
            {
              "internalType": "uint256",
              "name": "price",
              "type": "uint256"
            },
            {
              "internalType": "uint256",
              "name": "time",
              "type": "uint256"
            },
            {
              "internalType": "string",
              "name": "ipfs_hash",
              "type": "string"
            },
            {
              "internalType": "bool",
              "name": "is_public",
              "type": "bool"
            },
            {
              "internalType": "address",
              "name": "token",
              "type": "address"
            },
            {
              "internalType": "address",
              "name": "owner",
              "type": "address"
            },
            {
              "internalType": "address",
              "name": "client",
              "type": "address"
            }
          ],
          "internalType": "struct AgreementToken.AgreementDetails",
          "name": "",
          "type": "tuple"
        }
      ],
      "stateMutability": "view",
      "type": "function"
    },
    {
      "inputs": [
        {
          "internalType": "uint256",
          "name": "tokenId",
          "type": "uint256"
        }
      ],
      "name": "getApproved",
      "outputs": [
        {
          "internalType": "address",
          "name": "",
          "type": "address"
        }
      ],
      "stateMutability": "view",
      "type": "function"
    },
    {
      "inputs": [
        {
          "internalType": "address",
          "name": "owner",
          "type": "address"
        },
        {
          "internalType": "address",
          "name": "operator",
          "type": "address"
        }
      ],
      "name": "isApprovedForAll",
      "outputs": [
        {
          "internalType": "bool",
          "name": "",
          "type": "bool"
        }
      ],
      "stateMutability": "view",
      "type": "function"
    },
    {
      "inputs": [],
      "name": "name",
      "outputs": [
        {
          "internalType": "string",
          "name": "",
          "type": "string"
        }
      ],
      "stateMutability": "view",
      "type": "function"
    },
    {
      "inputs": [
        {
          "internalType": "uint256",
          "name": "tokenId",
          "type": "uint256"
        }
      ],
      "name": "ownerOf",
      "outputs": [
        {
          "internalType": "address",
          "name": "",
          "type": "address"
        }
      ],
      "stateMutability": "view",
      "type": "function"
    },
    {
      "inputs": [],
      "name": "placeOrder",
      "outputs": [],
      "stateMutability": "nonpayable",
      "type": "function"
    },
    {
      "inputs": [
        {
          "internalType": "address",
          "name": "from",
          "type": "address"
        },
        {
          "internalType": "address",
          "name": "to",
          "type": "address"
        },
        {
          "internalType": "uint256",
          "name": "tokenId",
          "type": "uint256"
        }
      ],
      "name": "safeTransferFrom",
      "outputs": [],
      "stateMutability": "nonpayable",
      "type": "function"
    },
    {
      "inputs": [
        {
          "internalType": "address",
          "name": "from",
          "type": "address"
        },
        {
          "internalType": "address",
          "name": "to",
          "type": "address"
        },
        {
          "internalType": "uint256",
          "name": "tokenId",
          "type": "uint256"
        },
        {
          "internalType": "bytes",
          "name": "_data",
          "type": "bytes"
        }
      ],
      "name": "safeTransferFrom",
      "outputs": [],
      "stateMutability": "nonpayable",
      "type": "function"
    },
    {
      "inputs": [
        {
          "internalType": "address",
          "name": "operator",
          "type": "address"
        },
        {
          "internalType": "bool",
          "name": "approved",
          "type": "bool"
        }
      ],
      "name": "setApprovalForAll",
      "outputs": [],
      "stateMutability": "nonpayable",
      "type": "function"
    },
    {
      "inputs": [
        {
          "internalType": "bytes4",
          "name": "interfaceId",
          "type": "bytes4"
        }
      ],
      "name": "supportsInterface",
      "outputs": [
        {
          "internalType": "bool",
          "name": "",
          "type": "bool"
        }
      ],
      "stateMutability": "view",
      "type": "function"
    },
    {
      "inputs": [],
      "name": "symbol",
      "outputs": [
        {
          "internalType": "string",
          "name": "",
          "type": "string"
        }
      ],
      "stateMutability": "view",
      "type": "function"
    },
    {
      "inputs": [
        {
          "internalType": "uint256",
          "name": "index",
          "type": "uint256"
        }
      ],
      "name": "tokenByIndex",
      "outputs": [
        {
          "internalType": "uint256",
          "name": "",
          "type": "uint256"
        }
      ],
      "stateMutability": "view",
      "type": "function"
    },
    {
      "inputs": [
        {
          "internalType": "address",
          "name": "owner",
          "type": "address"
        },
        {
          "internalType": "uint256",
          "name": "index",
          "type": "uint256"
        }
      ],
      "name": "tokenOfOwnerByIndex",
      "outputs": [
        {
          "internalType": "uint256",
          "name": "",
          "type": "uint256"
        }
      ],
      "stateMutability": "view",
      "type": "function"
    },
    {
      "inputs": [
        {
          "internalType": "uint256",
          "name": "tokenId",
          "type": "uint256"
        }
      ],
      "name": "tokenURI",
      "outputs": [
        {
          "internalType": "string",
          "name": "",
          "type": "string"
        }
      ],
      "stateMutability": "view",
      "type": "function"
    },
    {
      "inputs": [],
      "name": "totalSupply",
      "outputs": [
        {
          "internalType": "uint256",
          "name": "",
          "type": "uint256"
        }
      ],
      "stateMutability": "view",
      "type": "function"
    },
    {
      "inputs": [
        {
          "internalType": "address",
          "name": "to",
          "type": "address"
        },
        {
          "internalType": "uint256",
          "name": "id",
          "type": "uint256"
        }
      ],
      "name": "transfer",
      "outputs": [],
      "stateMutability": "nonpayable",
      "type": "function"
    },
    {
      "inputs": [
        {
          "internalType": "address",
          "name": "from",
          "type": "address"
        },
        {
          "internalType": "address",
          "name": "to",
          "type": "address"
        },
        {
          "internalType": "uint256",
          "name": "tokenId",
          "type": "uint256"
        }
      ],
      "name": "transferFrom",
      "outputs": [],
      "stateMutability": "nonpayable",
      "type": "function"
    },
    {
      "inputs": [
        {
          "internalType": "string",
          "name": "ipfs_hash",
          "type": "string"
        },
        {
          "internalType": "uint256",
          "name": "price",
          "type": "uint256"
        },
        {
          "internalType": "uint256",
          "name": "time",
          "type": "uint256"
        },
        {
          "internalType": "uint256",
          "name": "id",
          "type": "uint256"
        },
        {
          "internalType": "address",
          "name": "token",
          "type": "address"
        }
      ],
      "name": "updateAgreement",
      "outputs": [],
      "stateMutability": "nonpayable",
      "type": "function"
    }
  ],
  "transactionHash": "0xd9a961646c1a2aabb0b5e1bd274e57edc970596aabaa09b457249b773219ff93",
  "args": [],
  "solcInputHash": "9629266f44dfd40aa4d4e0e4403bcdf4",
  "bytecode": "0x60806040523480156200001157600080fd5b50604080518082018252600e81526d20b3b932b2b6b2b73a2a37b5b2b760911b6020808301918252835180850190945260038452621051d560ea1b908401528151919291620000639160009162000082565b5080516200007990600190602084019062000082565b50505062000165565b828054620000909062000128565b90600052602060002090601f016020900481019282620000b45760008555620000ff565b82601f10620000cf57805160ff1916838001178555620000ff565b82800160010185558215620000ff579182015b82811115620000ff578251825591602001919060010190620000e2565b506200010d92915062000111565b5090565b5b808211156200010d576000815560010162000112565b6002810460018216806200013d57607f821691505b602082108114156200015f57634e487b7160e01b600052602260045260246000fd5b50919050565b61205380620001756000396000f3fe608060405234801561001057600080fd5b50600436106101375760003560e01c806370a08231116100b8578063b36f77531161007c578063b36f775314610277578063b88d4fde14610297578063c87b56dd146102aa578063d52e24d1146102bd578063e985e9c5146102d0578063f5c609e0146102e357610137565b806370a082311461022357806395d89b4114610236578063a22cb4651461023e578063a9059cbb14610251578063ae019cc81461026457610137565b806323b872dd116100ff57806323b872dd146101c45780632f745c59146101d757806342842e0e146101ea5780634f6ccce7146101fd5780636352211e1461021057610137565b806301ffc9a71461013c57806306fdde0314610165578063081812fc1461017a578063095ea7b31461019a57806318160ddd146101af575b600080fd5b61014f61014a366004611873565b6102eb565b60405161015c91906119d8565b60405180910390f35b61016d610318565b60405161015c91906119e3565b61018d610188366004611914565b6103aa565b60405161015c9190611987565b6101ad6101a836600461184a565b6103f6565b005b6101b761048e565b60405161015c9190611ee6565b6101ad6101d23660046116dc565b610494565b6101b76101e536600461184a565b6104cc565b6101ad6101f83660046116dc565b61051e565b6101b761020b366004611914565b610539565b61018d61021e366004611914565b610594565b6101b7610231366004611690565b6105c9565b61016d61060d565b6101ad61024c366004611790565b61061c565b6101ad61025f36600461184a565b6106ea565b6101ad6102723660046118ab565b6106f9565b61028a610285366004611914565b6108fd565b60405161015c9190611e6f565b6101ad6102a5366004611717565b610a57565b61016d6102b8366004611914565b610a96565b6101ad6102cb3660046117b9565b610b19565b61014f6102de3660046116aa565b610c18565b6101ad610c46565b60006001600160e01b0319821663780e9d6360e01b1480610310575061031082610c48565b90505b919050565b60606000805461032790611f5e565b80601f016020809104026020016040519081016040528092919081815260200182805461035390611f5e565b80156103a05780601f10610375576101008083540402835291602001916103a0565b820191906000526020600020905b81548152906001019060200180831161038357829003601f168201915b5050505050905090565b60006103b582610c88565b6103da5760405162461bcd60e51b81526004016103d190611cad565b60405180910390fd5b506000908152600460205260409020546001600160a01b031690565b600061040182610594565b9050806001600160a01b0316836001600160a01b031614156104355760405162461bcd60e51b81526004016103d190611d91565b806001600160a01b0316610447610ca5565b6001600160a01b031614806104635750610463816102de610ca5565b61047f5760405162461bcd60e51b81526004016103d190611b8d565b6104898383610ca9565b505050565b60085490565b6104a561049f610ca5565b82610d17565b6104c15760405162461bcd60e51b81526004016103d190611dd2565b610489838383610d9c565b60006104d7836105c9565b82106104f55760405162461bcd60e51b81526004016103d1906119f6565b506001600160a01b03919091166000908152600660209081526040808320938352929052205490565b61048983838360405180602001604052806000815250610a57565b600061054361048e565b82106105615760405162461bcd60e51b81526004016103d190611e23565b6008828154811061058257634e487b7160e01b600052603260045260246000fd5b90600052602060002001549050919050565b6000818152600260205260408120546001600160a01b0316806103105760405162461bcd60e51b81526004016103d190611c2f565b60006001600160a01b0382166105f15760405162461bcd60e51b81526004016103d190611be5565b506001600160a01b031660009081526003602052604090205490565b60606001805461032790611f5e565b610624610ca5565b6001600160a01b0316826001600160a01b031614156106555760405162461bcd60e51b81526004016103d190611b0e565b8060056000610662610ca5565b6001600160a01b03908116825260208083019390935260409182016000908120918716808252919093529120805460ff1916921515929092179091556106a6610ca5565b6001600160a01b03167f17307eab39ab6107e8899845ad3d59bd9653f200f220920489ca2b5937696c31836040516106de91906119d8565b60405180910390a35050565b6106f5338383610d9c565b5050565b6000600b60008481526020019081526020016000206040518060e0016040529081600082015481526020016001820154815260200160028201805461073d90611f5e565b80601f016020809104026020016040519081016040528092919081815260200182805461076990611f5e565b80156107b65780601f1061078b576101008083540402835291602001916107b6565b820191906000526020600020905b81548152906001019060200180831161079957829003601f168201915b5050509183525050600382015460ff811615156020808401919091526001600160a01b036101009092048216604080850191909152600485015483166060808601919091526005909501548316608094850152805160e0810182528b81528083018b81528183018e8152888801511515978301979097528985169582019590955260a08088015185169082015260c080880151909416938101939093526000898152600b83522082518155925160018401559251805194955090939192610885926002850192909101906114e7565b506060820151600382018054608085015160ff1990911692151592909217610100600160a81b0319166101006001600160a01b039384160217905560a08301516004830180546001600160a01b031990811692841692909217905560c090930151600590920180549093169116179055505050505050565b61090561156b565b6000600b60008481526020019081526020016000206040518060e0016040529081600082015481526020016001820154815260200160028201805461094990611f5e565b80601f016020809104026020016040519081016040528092919081815260200182805461097590611f5e565b80156109c25780601f10610997576101008083540402835291602001916109c2565b820191906000526020600020905b8154815290600101906020018083116109a557829003601f168201915b5050509183525050600382015460ff8116151560208301526001600160a01b0361010090910481166040830152600483015481166060808401919091526005909301541660809091015281015190915015610a1e579050610313565b60c08101516001600160a01b0316331480610a45575060a08101516001600160a01b031633145b15610a51579050610313565b50919050565b610a68610a62610ca5565b83610d17565b610a845760405162461bcd60e51b81526004016103d190611dd2565b610a9084848484610ec9565b50505050565b6060610aa182610c88565b610abd5760405162461bcd60e51b81526004016103d190611d42565b6000610ac7610efc565b90506000815111610ae75760405180602001604052806000815250610b12565b80610af184610f0e565b604051602001610b02929190611958565b6040516020818303038152906040525b9392505050565b6000610b23611029565b6040805160e08101825288815260208082018981528284018c815287151560608501526001600160a01b03808b1660808601523360a0860152891660c08501526000868152600b8452949094208351815590516001820155925180519495509193610b9492600285019201906114e7565b506060820151600382018054608085015160ff1990911692151592909217610100600160a81b0319166101006001600160a01b039384160217905560a08301516004830180546001600160a01b031990811692841692909217905560c090930151600590920180549093169116179055610c0e8882611047565b5050505050505050565b6001600160a01b03918216600090815260056020908152604080832093909416825291909152205460ff1690565b565b60006001600160e01b031982166380ac58cd60e01b1480610c7957506001600160e01b03198216635b5e139f60e01b145b80610310575061031082611126565b6000908152600260205260409020546001600160a01b0316151590565b3390565b600081815260046020526040902080546001600160a01b0319166001600160a01b0384169081179091558190610cde82610594565b6001600160a01b03167f8c5be1e5ebec7d5bd14f71427d1e84f3dd0314c0f7b2291e5b200ac8c7c3b92560405160405180910390a45050565b6000610d2282610c88565b610d3e5760405162461bcd60e51b81526004016103d190611b41565b6000610d4983610594565b9050806001600160a01b0316846001600160a01b03161480610d845750836001600160a01b0316610d79846103aa565b6001600160a01b0316145b80610d945750610d948185610c18565b949350505050565b826001600160a01b0316610daf82610594565b6001600160a01b031614610dd55760405162461bcd60e51b81526004016103d190611cf9565b6001600160a01b038216610dfb5760405162461bcd60e51b81526004016103d190611aca565b610e0683838361113f565b610e11600082610ca9565b6001600160a01b0383166000908152600360205260408120805460019290610e3a908490611f1b565b90915550506001600160a01b0382166000908152600360205260408120805460019290610e68908490611eef565b909155505060008181526002602052604080822080546001600160a01b0319166001600160a01b0386811691821790925591518493918716917fddf252ad1be2c89b69c2b068fc378daa952ba7f163c4a11628f55a4df523b3ef91a4505050565b610ed4848484610d9c565b610ee0848484846111c8565b610a905760405162461bcd60e51b81526004016103d190611a41565b60408051602081019091526000815290565b606081610f3357506040805180820190915260018152600360fc1b6020820152610313565b8160005b8115610f5d5780610f4781611f93565b9150610f569050600a83611f07565b9150610f37565b60008167ffffffffffffffff811115610f8657634e487b7160e01b600052604160045260246000fd5b6040519080825280601f01601f191660200182016040528015610fb0576020820181803683370190505b5090505b8415610d9457610fc5600183611f1b565b9150610fd2600a86611fae565b610fdd906030611eef565b60f81b81838151811061100057634e487b7160e01b600052603260045260246000fd5b60200101906001600160f81b031916908160001a905350611022600a86611f07565b9450610fb4565b600a80546000918261103a83611f93565b9091555050600a54905090565b6001600160a01b03821661106d5760405162461bcd60e51b81526004016103d190611c78565b61107681610c88565b156110935760405162461bcd60e51b81526004016103d190611a93565b61109f6000838361113f565b6001600160a01b03821660009081526003602052604081208054600192906110c8908490611eef565b909155505060008181526002602052604080822080546001600160a01b0319166001600160a01b03861690811790915590518392907fddf252ad1be2c89b69c2b068fc378daa952ba7f163c4a11628f55a4df523b3ef908290a45050565b6001600160e01b031981166301ffc9a760e01b14919050565b61114a838383610489565b6001600160a01b03831661116657611161816112e3565b611189565b816001600160a01b0316836001600160a01b031614611189576111898382611327565b6001600160a01b0382166111a5576111a0816113c4565b610489565b826001600160a01b0316826001600160a01b03161461048957610489828261149d565b60006111dc846001600160a01b03166114e1565b156112d857836001600160a01b031663150b7a026111f8610ca5565b8786866040518563ffffffff1660e01b815260040161121a949392919061199b565b602060405180830381600087803b15801561123457600080fd5b505af1925050508015611264575060408051601f3d908101601f191682019092526112619181019061188f565b60015b6112be573d808015611292576040519150601f19603f3d011682016040523d82523d6000602084013e611297565b606091505b5080516112b65760405162461bcd60e51b81526004016103d190611a41565b805181602001fd5b6001600160e01b031916630a85bd0160e11b149050610d94565b506001949350505050565b600880546000838152600960205260408120829055600182018355919091527ff3f7a9fe364faab93b216da50a3214154f22a0a2b415b23a84c8169e8b636ee30155565b60006001611334846105c9565b61133e9190611f1b565b600083815260076020526040902054909150808214611391576001600160a01b03841660009081526006602090815260408083208584528252808320548484528184208190558352600790915290208190555b5060009182526007602090815260408084208490556001600160a01b039094168352600681528383209183525290812055565b6008546000906113d690600190611f1b565b6000838152600960205260408120546008805493945090928490811061140c57634e487b7160e01b600052603260045260246000fd5b90600052602060002001549050806008838154811061143b57634e487b7160e01b600052603260045260246000fd5b600091825260208083209091019290925582815260099091526040808220849055858252812055600880548061148157634e487b7160e01b600052603160045260246000fd5b6001900381819060005260206000200160009055905550505050565b60006114a8836105c9565b6001600160a01b039093166000908152600660209081526040808320868452825280832085905593825260079052919091209190915550565b3b151590565b8280546114f390611f5e565b90600052602060002090601f016020900481019282611515576000855561155b565b82601f1061152e57805160ff191683800117855561155b565b8280016001018555821561155b579182015b8281111561155b578251825591602001919060010190611540565b506115679291506115c5565b5090565b6040518060e0016040528060008152602001600081526020016060815260200160001515815260200160006001600160a01b0316815260200160006001600160a01b0316815260200160006001600160a01b031681525090565b5b8082111561156757600081556001016115c6565b600067ffffffffffffffff808411156115f5576115f5611fee565b604051601f8501601f19168101602001828111828210171561161957611619611fee565b60405284815291508183850186101561163157600080fd5b8484602083013760006020868301015250509392505050565b80356001600160a01b038116811461031357600080fd5b8035801515811461031357600080fd5b600082601f830112611681578081fd5b610b12838335602085016115da565b6000602082840312156116a1578081fd5b610b128261164a565b600080604083850312156116bc578081fd5b6116c58361164a565b91506116d36020840161164a565b90509250929050565b6000806000606084860312156116f0578081fd5b6116f98461164a565b92506117076020850161164a565b9150604084013590509250925092565b6000806000806080858703121561172c578081fd5b6117358561164a565b93506117436020860161164a565b925060408501359150606085013567ffffffffffffffff811115611765578182fd5b8501601f81018713611775578182fd5b611784878235602084016115da565b91505092959194509250565b600080604083850312156117a2578182fd5b6117ab8361164a565b91506116d360208401611661565b600080600080600080600060e0888a0312156117d3578283fd5b6117dc8861164a565b9650602088013567ffffffffffffffff8111156117f7578384fd5b6118038a828b01611671565b96505060408801359450606088013593506118206080890161164a565b925061182e60a0890161164a565b915061183c60c08901611661565b905092959891949750929550565b6000806040838503121561185c578182fd5b6118658361164a565b946020939093013593505050565b600060208284031215611884578081fd5b8135610b1281612004565b6000602082840312156118a0578081fd5b8151610b1281612004565b600080600080600060a086880312156118c2578081fd5b853567ffffffffffffffff8111156118d8578182fd5b6118e488828901611671565b9550506020860135935060408601359250606086013591506119086080870161164a565b90509295509295909350565b600060208284031215611925578081fd5b5035919050565b60008151808452611944816020860160208601611f32565b601f01601f19169290920160200192915050565b6000835161196a818460208801611f32565b83519083019061197e818360208801611f32565b01949350505050565b6001600160a01b0391909116815260200190565b6001600160a01b03858116825284166020820152604081018390526080606082018190526000906119ce9083018461192c565b9695505050505050565b901515815260200190565b600060208252610b12602083018461192c565b6020808252602b908201527f455243373231456e756d657261626c653a206f776e657220696e646578206f7560408201526a74206f6620626f756e647360a81b606082015260800190565b60208082526032908201527f4552433732313a207472616e7366657220746f206e6f6e20455243373231526560408201527131b2b4bb32b91034b6b83632b6b2b73a32b960711b606082015260800190565b6020808252601c908201527f4552433732313a20746f6b656e20616c7265616479206d696e74656400000000604082015260600190565b60208082526024908201527f4552433732313a207472616e7366657220746f20746865207a65726f206164646040820152637265737360e01b606082015260800190565b60208082526019908201527822a9219b99189d1030b8383937bb32903a379031b0b63632b960391b604082015260600190565b6020808252602c908201527f4552433732313a206f70657261746f7220717565727920666f72206e6f6e657860408201526b34b9ba32b73a103a37b5b2b760a11b606082015260800190565b60208082526038908201527f4552433732313a20617070726f76652063616c6c6572206973206e6f74206f776040820152771b995c881b9bdc88185c1c1c9bdd995908199bdc88185b1b60421b606082015260800190565b6020808252602a908201527f4552433732313a2062616c616e636520717565727920666f7220746865207a65604082015269726f206164647265737360b01b606082015260800190565b60208082526029908201527f4552433732313a206f776e657220717565727920666f72206e6f6e657869737460408201526832b73a103a37b5b2b760b91b606082015260800190565b6020808252818101527f4552433732313a206d696e7420746f20746865207a65726f2061646472657373604082015260600190565b6020808252602c908201527f4552433732313a20617070726f76656420717565727920666f72206e6f6e657860408201526b34b9ba32b73a103a37b5b2b760a11b606082015260800190565b60208082526029908201527f4552433732313a207472616e73666572206f6620746f6b656e2074686174206960408201526839903737ba1037bbb760b91b606082015260800190565b6020808252602f908201527f4552433732314d657461646174613a2055524920717565727920666f72206e6f60408201526e3732bc34b9ba32b73a103a37b5b2b760891b606082015260800190565b60208082526021908201527f4552433732313a20617070726f76616c20746f2063757272656e74206f776e656040820152603960f91b606082015260800190565b60208082526031908201527f4552433732313a207472616e736665722063616c6c6572206973206e6f74206f6040820152701ddb995c881b9bdc88185c1c1c9bdd9959607a1b606082015260800190565b6020808252602c908201527f455243373231456e756d657261626c653a20676c6f62616c20696e646578206f60408201526b7574206f6620626f756e647360a01b606082015260800190565b6000602082528251602083015260208301516040830152604083015160e06060840152611ea061010084018261192c565b9050606084015115156080840152608084015160018060a01b0380821660a08601528060a08701511660c08601528060c08701511660e086015250508091505092915050565b90815260200190565b60008219821115611f0257611f02611fc2565b500190565b600082611f1657611f16611fd8565b500490565b600082821015611f2d57611f2d611fc2565b500390565b60005b83811015611f4d578181015183820152602001611f35565b83811115610a905750506000910152565b600281046001821680611f7257607f821691505b60208210811415610a5157634e487b7160e01b600052602260045260246000fd5b6000600019821415611fa757611fa7611fc2565b5060010190565b600082611fbd57611fbd611fd8565b500690565b634e487b7160e01b600052601160045260246000fd5b634e487b7160e01b600052601260045260246000fd5b634e487b7160e01b600052604160045260246000fd5b6001600160e01b03198116811461201a57600080fd5b5056fea26469706673582212201f7e0eb823ed58412454cf7f47c91e895a207210a13d783c25ed863b24e5cb7364736f6c63430008000033",
  "devdoc": {
    "kind": "dev",
    "methods": {
      "approve(address,uint256)": {
        "details": "See {IERC721-approve}."
      },
      "balanceOf(address)": {
        "details": "See {IERC721-balanceOf}."
      },
      "getApproved(uint256)": {
        "details": "See {IERC721-getApproved}."
      },
      "isApprovedForAll(address,address)": {
        "details": "See {IERC721-isApprovedForAll}."
      },
      "name()": {
        "details": "See {IERC721Metadata-name}."
      },
      "ownerOf(uint256)": {
        "details": "See {IERC721-ownerOf}."
      },
      "safeTransferFrom(address,address,uint256)": {
        "details": "See {IERC721-safeTransferFrom}."
      },
      "safeTransferFrom(address,address,uint256,bytes)": {
        "details": "See {IERC721-safeTransferFrom}."
      },
      "setApprovalForAll(address,bool)": {
        "details": "See {IERC721-setApprovalForAll}."
      },
      "supportsInterface(bytes4)": {
        "details": "See {IERC165-supportsInterface}."
      },
      "symbol()": {
        "details": "See {IERC721Metadata-symbol}."
      },
      "tokenByIndex(uint256)": {
        "details": "See {IERC721Enumerable-tokenByIndex}."
      },
      "tokenOfOwnerByIndex(address,uint256)": {
        "details": "See {IERC721Enumerable-tokenOfOwnerByIndex}."
      },
      "tokenURI(uint256)": {
        "details": "See {IERC721Metadata-tokenURI}."
      },
      "totalSupply()": {
        "details": "See {IERC721Enumerable-totalSupply}."
      },
      "transferFrom(address,address,uint256)": {
        "details": "See {IERC721-transferFrom}."
      }
    },
    "version": 1
  },
  "userdoc": {
    "kind": "user",
    "methods": {},
    "version": 1
  },
  "storageLayout": {
    "storage": [
      {
        "astId": 25,
        "contract": "contracts/Agreement.sol:AgreementToken",
        "label": "_name",
        "offset": 0,
        "slot": "0",
        "type": "t_string_storage"
      },
      {
        "astId": 27,
        "contract": "contracts/Agreement.sol:AgreementToken",
        "label": "_symbol",
        "offset": 0,
        "slot": "1",
        "type": "t_string_storage"
      },
      {
        "astId": 31,
        "contract": "contracts/Agreement.sol:AgreementToken",
        "label": "_owners",
        "offset": 0,
        "slot": "2",
        "type": "t_mapping(t_uint256,t_address)"
      },
      {
        "astId": 35,
        "contract": "contracts/Agreement.sol:AgreementToken",
        "label": "_balances",
        "offset": 0,
        "slot": "3",
        "type": "t_mapping(t_address,t_uint256)"
      },
      {
        "astId": 39,
        "contract": "contracts/Agreement.sol:AgreementToken",
        "label": "_tokenApprovals",
        "offset": 0,
        "slot": "4",
        "type": "t_mapping(t_uint256,t_address)"
      },
      {
        "astId": 45,
        "contract": "contracts/Agreement.sol:AgreementToken",
        "label": "_operatorApprovals",
        "offset": 0,
        "slot": "5",
        "type": "t_mapping(t_address,t_mapping(t_address,t_bool))"
      },
      {
        "astId": 964,
        "contract": "contracts/Agreement.sol:AgreementToken",
        "label": "_ownedTokens",
        "offset": 0,
        "slot": "6",
        "type": "t_mapping(t_address,t_mapping(t_uint256,t_uint256))"
      },
      {
        "astId": 968,
        "contract": "contracts/Agreement.sol:AgreementToken",
        "label": "_ownedTokensIndex",
        "offset": 0,
        "slot": "7",
        "type": "t_mapping(t_uint256,t_uint256)"
      },
      {
        "astId": 971,
        "contract": "contracts/Agreement.sol:AgreementToken",
        "label": "_allTokens",
        "offset": 0,
        "slot": "8",
        "type": "t_array(t_uint256)dyn_storage"
      },
      {
        "astId": 975,
        "contract": "contracts/Agreement.sol:AgreementToken",
        "label": "_allTokensIndex",
        "offset": 0,
        "slot": "9",
        "type": "t_mapping(t_uint256,t_uint256)"
      },
      {
        "astId": 1925,
        "contract": "contracts/Agreement.sol:AgreementToken",
        "label": "tokenId",
        "offset": 0,
        "slot": "10",
        "type": "t_uint256"
      },
      {
        "astId": 1930,
        "contract": "contracts/Agreement.sol:AgreementToken",
        "label": "agreementDetail",
        "offset": 0,
        "slot": "11",
        "type": "t_mapping(t_uint256,t_struct(AgreementDetails)1923_storage)"
      }
    ],
    "types": {
      "t_address": {
        "encoding": "inplace",
        "label": "address",
        "numberOfBytes": "20"
      },
      "t_array(t_uint256)dyn_storage": {
        "base": "t_uint256",
        "encoding": "dynamic_array",
        "label": "uint256[]",
        "numberOfBytes": "32"
      },
      "t_bool": {
        "encoding": "inplace",
        "label": "bool",
        "numberOfBytes": "1"
      },
      "t_mapping(t_address,t_bool)": {
        "encoding": "mapping",
        "key": "t_address",
        "label": "mapping(address => bool)",
        "numberOfBytes": "32",
        "value": "t_bool"
      },
      "t_mapping(t_address,t_mapping(t_address,t_bool))": {
        "encoding": "mapping",
        "key": "t_address",
        "label": "mapping(address => mapping(address => bool))",
        "numberOfBytes": "32",
        "value": "t_mapping(t_address,t_bool)"
      },
      "t_mapping(t_address,t_mapping(t_uint256,t_uint256))": {
        "encoding": "mapping",
        "key": "t_address",
        "label": "mapping(address => mapping(uint256 => uint256))",
        "numberOfBytes": "32",
        "value": "t_mapping(t_uint256,t_uint256)"
      },
      "t_mapping(t_address,t_uint256)": {
        "encoding": "mapping",
        "key": "t_address",
        "label": "mapping(address => uint256)",
        "numberOfBytes": "32",
        "value": "t_uint256"
      },
      "t_mapping(t_uint256,t_address)": {
        "encoding": "mapping",
        "key": "t_uint256",
        "label": "mapping(uint256 => address)",
        "numberOfBytes": "32",
        "value": "t_address"
      },
      "t_mapping(t_uint256,t_struct(AgreementDetails)1923_storage)": {
        "encoding": "mapping",
        "key": "t_uint256",
        "label": "mapping(uint256 => struct AgreementToken.AgreementDetails)",
        "numberOfBytes": "32",
        "value": "t_struct(AgreementDetails)1923_storage"
      },
      "t_mapping(t_uint256,t_uint256)": {
        "encoding": "mapping",
        "key": "t_uint256",
        "label": "mapping(uint256 => uint256)",
        "numberOfBytes": "32",
        "value": "t_uint256"
      },
      "t_string_storage": {
        "encoding": "bytes",
        "label": "string",
        "numberOfBytes": "32"
      },
      "t_struct(AgreementDetails)1923_storage": {
        "encoding": "inplace",
        "label": "struct AgreementToken.AgreementDetails",
        "members": [
          {
            "astId": 1910,
            "contract": "contracts/Agreement.sol:AgreementToken",
            "label": "price",
            "offset": 0,
            "slot": "0",
            "type": "t_uint256"
          },
          {
            "astId": 1912,
            "contract": "contracts/Agreement.sol:AgreementToken",
            "label": "time",
            "offset": 0,
            "slot": "1",
            "type": "t_uint256"
          },
          {
            "astId": 1914,
            "contract": "contracts/Agreement.sol:AgreementToken",
            "label": "ipfs_hash",
            "offset": 0,
            "slot": "2",
            "type": "t_string_storage"
          },
          {
            "astId": 1916,
            "contract": "contracts/Agreement.sol:AgreementToken",
            "label": "is_public",
            "offset": 0,
            "slot": "3",
            "type": "t_bool"
          },
          {
            "astId": 1918,
            "contract": "contracts/Agreement.sol:AgreementToken",
            "label": "token",
            "offset": 1,
            "slot": "3",
            "type": "t_address"
          },
          {
            "astId": 1920,
            "contract": "contracts/Agreement.sol:AgreementToken",
            "label": "owner",
            "offset": 0,
            "slot": "4",
            "type": "t_address"
          },
          {
            "astId": 1922,
            "contract": "contracts/Agreement.sol:AgreementToken",
            "label": "client",
            "offset": 0,
            "slot": "5",
            "type": "t_address"
          }
        ],
        "numberOfBytes": "192"
      },
      "t_uint256": {
        "encoding": "inplace",
        "label": "uint256",
        "numberOfBytes": "32"
      }
    }
  }
}